{
    "contractName": "KryxiviaNft",
    "abi": [
        {
            "inputs": [
                {
                    "internalType": "string",
                    "name": "name",
                    "type": "string"
                },
                {
                    "internalType": "string",
                    "name": "symbol",
                    "type": "string"
                }
            ],
            "stateMutability": "nonpayable",
            "type": "constructor"
        },
        {
            "anonymous": false,
            "inputs": [
                {
                    "indexed": true,
                    "internalType": "address",
                    "name": "owner",
                    "type": "address"
                },
                {
                    "indexed": true,
                    "internalType": "address",
                    "name": "approved",
                    "type": "address"
                },
                {
                    "indexed": true,
                    "internalType": "uint256",
                    "name": "tokenId",
                    "type": "uint256"
                }
            ],
            "name": "Approval",
            "type": "event"
        },
        {
            "anonymous": false,
            "inputs": [
                {
                    "indexed": true,
                    "internalType": "address",
                    "name": "owner",
                    "type": "address"
                },
                {
                    "indexed": true,
                    "internalType": "address",
                    "name": "operator",
                    "type": "address"
                },
                {
                    "indexed": false,
                    "internalType": "bool",
                    "name": "approved",
                    "type": "bool"
                }
            ],
            "name": "ApprovalForAll",
            "type": "event"
        },
        {
            "anonymous": false,
            "inputs": [
                {
                    "indexed": false,
                    "internalType": "address",
                    "name": "account",
                    "type": "address"
                }
            ],
            "name": "Paused",
            "type": "event"
        },
        {
            "anonymous": false,
            "inputs": [
                {
                    "indexed": true,
                    "internalType": "bytes32",
                    "name": "role",
                    "type": "bytes32"
                },
                {
                    "indexed": true,
                    "internalType": "bytes32",
                    "name": "previousAdminRole",
                    "type": "bytes32"
                },
                {
                    "indexed": true,
                    "internalType": "bytes32",
                    "name": "newAdminRole",
                    "type": "bytes32"
                }
            ],
            "name": "RoleAdminChanged",
            "type": "event"
        },
        {
            "anonymous": false,
            "inputs": [
                {
                    "indexed": true,
                    "internalType": "bytes32",
                    "name": "role",
                    "type": "bytes32"
                },
                {
                    "indexed": true,
                    "internalType": "address",
                    "name": "account",
                    "type": "address"
                },
                {
                    "indexed": true,
                    "internalType": "address",
                    "name": "sender",
                    "type": "address"
                }
            ],
            "name": "RoleGranted",
            "type": "event"
        },
        {
            "anonymous": false,
            "inputs": [
                {
                    "indexed": true,
                    "internalType": "bytes32",
                    "name": "role",
                    "type": "bytes32"
                },
                {
                    "indexed": true,
                    "internalType": "address",
                    "name": "account",
                    "type": "address"
                },
                {
                    "indexed": true,
                    "internalType": "address",
                    "name": "sender",
                    "type": "address"
                }
            ],
            "name": "RoleRevoked",
            "type": "event"
        },
        {
            "anonymous": false,
            "inputs": [
                {
                    "indexed": true,
                    "internalType": "address",
                    "name": "from",
                    "type": "address"
                },
                {
                    "indexed": true,
                    "internalType": "address",
                    "name": "to",
                    "type": "address"
                },
                {
                    "indexed": true,
                    "internalType": "uint256",
                    "name": "tokenId",
                    "type": "uint256"
                }
            ],
            "name": "Transfer",
            "type": "event"
        },
        {
            "anonymous": false,
            "inputs": [
                {
                    "indexed": false,
                    "internalType": "address",
                    "name": "account",
                    "type": "address"
                }
            ],
            "name": "Unpaused",
            "type": "event"
        },
        {
            "inputs": [],
            "name": "DEFAULT_ADMIN_ROLE",
            "outputs": [
                {
                    "internalType": "bytes32",
                    "name": "",
                    "type": "bytes32"
                }
            ],
            "stateMutability": "view",
            "type": "function"
        },
        {
            "inputs": [],
            "name": "MINTER_ROLE",
            "outputs": [
                {
                    "internalType": "bytes32",
                    "name": "",
                    "type": "bytes32"
                }
            ],
            "stateMutability": "view",
            "type": "function"
        },
        {
            "inputs": [],
            "name": "PAUSER_ROLE",
            "outputs": [
                {
                    "internalType": "bytes32",
                    "name": "",
                    "type": "bytes32"
                }
            ],
            "stateMutability": "view",
            "type": "function"
        },
        {
            "inputs": [
                {
                    "internalType": "address",
                    "name": "to",
                    "type": "address"
                },
                {
                    "internalType": "uint256",
                    "name": "tokenId",
                    "type": "uint256"
                }
            ],
            "name": "approve",
            "outputs": [],
            "stateMutability": "nonpayable",
            "type": "function"
        },
        {
            "inputs": [
                {
                    "internalType": "address",
                    "name": "owner",
                    "type": "address"
                }
            ],
            "name": "balanceOf",
            "outputs": [
                {
                    "internalType": "uint256",
                    "name": "",
                    "type": "uint256"
                }
            ],
            "stateMutability": "view",
            "type": "function"
        },
        {
            "inputs": [
                {
                    "internalType": "uint256",
                    "name": "tokenId",
                    "type": "uint256"
                }
            ],
            "name": "burn",
            "outputs": [],
            "stateMutability": "nonpayable",
            "type": "function"
        },
        {
            "inputs": [
                {
                    "internalType": "uint256",
                    "name": "tokenId",
                    "type": "uint256"
                }
            ],
            "name": "getApproved",
            "outputs": [
                {
                    "internalType": "address",
                    "name": "",
                    "type": "address"
                }
            ],
            "stateMutability": "view",
            "type": "function"
        },
        {
            "inputs": [
                {
                    "internalType": "bytes32",
                    "name": "role",
                    "type": "bytes32"
                }
            ],
            "name": "getRoleAdmin",
            "outputs": [
                {
                    "internalType": "bytes32",
                    "name": "",
                    "type": "bytes32"
                }
            ],
            "stateMutability": "view",
            "type": "function"
        },
        {
            "inputs": [
                {
                    "internalType": "bytes32",
                    "name": "role",
                    "type": "bytes32"
                },
                {
                    "internalType": "uint256",
                    "name": "index",
                    "type": "uint256"
                }
            ],
            "name": "getRoleMember",
            "outputs": [
                {
                    "internalType": "address",
                    "name": "",
                    "type": "address"
                }
            ],
            "stateMutability": "view",
            "type": "function"
        },
        {
            "inputs": [
                {
                    "internalType": "bytes32",
                    "name": "role",
                    "type": "bytes32"
                }
            ],
            "name": "getRoleMemberCount",
            "outputs": [
                {
                    "internalType": "uint256",
                    "name": "",
                    "type": "uint256"
                }
            ],
            "stateMutability": "view",
            "type": "function"
        },
        {
            "inputs": [
                {
                    "internalType": "bytes32",
                    "name": "role",
                    "type": "bytes32"
                },
                {
                    "internalType": "address",
                    "name": "account",
                    "type": "address"
                }
            ],
            "name": "grantRole",
            "outputs": [],
            "stateMutability": "nonpayable",
            "type": "function"
        },
        {
            "inputs": [
                {
                    "internalType": "bytes32",
                    "name": "role",
                    "type": "bytes32"
                },
                {
                    "internalType": "address",
                    "name": "account",
                    "type": "address"
                }
            ],
            "name": "hasRole",
            "outputs": [
                {
                    "internalType": "bool",
                    "name": "",
                    "type": "bool"
                }
            ],
            "stateMutability": "view",
            "type": "function"
        },
        {
            "inputs": [
                {
                    "internalType": "address",
                    "name": "owner",
                    "type": "address"
                },
                {
                    "internalType": "address",
                    "name": "operator",
                    "type": "address"
                }
            ],
            "name": "isApprovedForAll",
            "outputs": [
                {
                    "internalType": "bool",
                    "name": "",
                    "type": "bool"
                }
            ],
            "stateMutability": "view",
            "type": "function"
        },
        {
            "inputs": [
                {
                    "internalType": "address",
                    "name": "to",
                    "type": "address"
                },
                {
                    "internalType": "string",
                    "name": "ipfsHash",
                    "type": "string"
                }
            ],
            "name": "mint",
            "outputs": [],
            "stateMutability": "nonpayable",
            "type": "function"
        },
        {
            "inputs": [],
            "name": "name",
            "outputs": [
                {
                    "internalType": "string",
                    "name": "",
                    "type": "string"
                }
            ],
            "stateMutability": "view",
            "type": "function"
        },
        {
            "inputs": [
                {
                    "internalType": "uint256",
                    "name": "tokenId",
                    "type": "uint256"
                }
            ],
            "name": "ownerOf",
            "outputs": [
                {
                    "internalType": "address",
                    "name": "",
                    "type": "address"
                }
            ],
            "stateMutability": "view",
            "type": "function"
        },
        {
            "inputs": [],
            "name": "pause",
            "outputs": [],
            "stateMutability": "nonpayable",
            "type": "function"
        },
        {
            "inputs": [],
            "name": "paused",
            "outputs": [
                {
                    "internalType": "bool",
                    "name": "",
                    "type": "bool"
                }
            ],
            "stateMutability": "view",
            "type": "function"
        },
        {
            "inputs": [
                {
                    "internalType": "bytes32",
                    "name": "role",
                    "type": "bytes32"
                },
                {
                    "internalType": "address",
                    "name": "account",
                    "type": "address"
                }
            ],
            "name": "renounceRole",
            "outputs": [],
            "stateMutability": "nonpayable",
            "type": "function"
        },
        {
            "inputs": [
                {
                    "internalType": "bytes32",
                    "name": "role",
                    "type": "bytes32"
                },
                {
                    "internalType": "address",
                    "name": "account",
                    "type": "address"
                }
            ],
            "name": "revokeRole",
            "outputs": [],
            "stateMutability": "nonpayable",
            "type": "function"
        },
        {
            "inputs": [
                {
                    "internalType": "address",
                    "name": "from",
                    "type": "address"
                },
                {
                    "internalType": "address",
                    "name": "to",
                    "type": "address"
                },
                {
                    "internalType": "uint256",
                    "name": "tokenId",
                    "type": "uint256"
                }
            ],
            "name": "safeTransferFrom",
            "outputs": [],
            "stateMutability": "nonpayable",
            "type": "function"
        },
        {
            "inputs": [
                {
                    "internalType": "address",
                    "name": "from",
                    "type": "address"
                },
                {
                    "internalType": "address",
                    "name": "to",
                    "type": "address"
                },
                {
                    "internalType": "uint256",
                    "name": "tokenId",
                    "type": "uint256"
                },
                {
                    "internalType": "bytes",
                    "name": "_data",
                    "type": "bytes"
                }
            ],
            "name": "safeTransferFrom",
            "outputs": [],
            "stateMutability": "nonpayable",
            "type": "function"
        },
        {
            "inputs": [
                {
                    "internalType": "address",
                    "name": "operator",
                    "type": "address"
                },
                {
                    "internalType": "bool",
                    "name": "approved",
                    "type": "bool"
                }
            ],
            "name": "setApprovalForAll",
            "outputs": [],
            "stateMutability": "nonpayable",
            "type": "function"
        },
        {
            "inputs": [
                {
                    "internalType": "bytes4",
                    "name": "interfaceId",
                    "type": "bytes4"
                }
            ],
            "name": "supportsInterface",
            "outputs": [
                {
                    "internalType": "bool",
                    "name": "",
                    "type": "bool"
                }
            ],
            "stateMutability": "view",
            "type": "function"
        },
        {
            "inputs": [],
            "name": "symbol",
            "outputs": [
                {
                    "internalType": "string",
                    "name": "",
                    "type": "string"
                }
            ],
            "stateMutability": "view",
            "type": "function"
        },
        {
            "inputs": [
                {
                    "internalType": "uint256",
                    "name": "index",
                    "type": "uint256"
                }
            ],
            "name": "tokenByIndex",
            "outputs": [
                {
                    "internalType": "uint256",
                    "name": "",
                    "type": "uint256"
                }
            ],
            "stateMutability": "view",
            "type": "function"
        },
        {
            "inputs": [
                {
                    "internalType": "address",
                    "name": "owner",
                    "type": "address"
                },
                {
                    "internalType": "uint256",
                    "name": "index",
                    "type": "uint256"
                }
            ],
            "name": "tokenOfOwnerByIndex",
            "outputs": [
                {
                    "internalType": "uint256",
                    "name": "",
                    "type": "uint256"
                }
            ],
            "stateMutability": "view",
            "type": "function"
        },
        {
            "inputs": [
                {
                    "internalType": "uint256",
                    "name": "tokenId",
                    "type": "uint256"
                }
            ],
            "name": "tokenURI",
            "outputs": [
                {
                    "internalType": "string",
                    "name": "",
                    "type": "string"
                }
            ],
            "stateMutability": "view",
            "type": "function"
        },
        {
            "inputs": [],
            "name": "totalSupply",
            "outputs": [
                {
                    "internalType": "uint256",
                    "name": "",
                    "type": "uint256"
                }
            ],
            "stateMutability": "view",
            "type": "function"
        },
        {
            "inputs": [
                {
                    "internalType": "address",
                    "name": "from",
                    "type": "address"
                },
                {
                    "internalType": "address",
                    "name": "to",
                    "type": "address"
                },
                {
                    "internalType": "uint256",
                    "name": "tokenId",
                    "type": "uint256"
                }
            ],
            "name": "transferFrom",
            "outputs": [],
            "stateMutability": "nonpayable",
            "type": "function"
        },
        {
            "inputs": [],
            "name": "unpause",
            "outputs": [],
            "stateMutability": "nonpayable",
            "type": "function"
        }
    ],
    "bytecode": "60806040523480156200001157600080fd5b5060405162002e3838038062002e388339810160408190526200003491620003cc565b8151829082906200004d90600290602085019062000273565b5080516200006390600390602084019062000273565b5050600d805460ff191690555060408051808201909152600780825266697066733a2f2f60c81b6020909201918252620000a091600f9162000273565b50620000ae6000336200010e565b620000da7f9f2df0fed2c77648de5860a4cc508cd0818c85b8b8a1ab4ceeef8d981c8956a6336200010e565b620001067f65d7a28e3265b37a6474929f336521b332c1681b933f6cb9f3376673440d862a336200010e565b505062000486565b6200012582826200015160201b62000d7a1760201c565b60008281526001602090815260409091206200014c91839062000d8862000161821b17901c565b505050565b6200015d828262000181565b5050565b600062000178836001600160a01b03841662000221565b90505b92915050565b6000828152602081815260408083206001600160a01b038516845290915290205460ff166200015d576000828152602081815260408083206001600160a01b03851684529091529020805460ff19166001179055620001dd3390565b6001600160a01b0316816001600160a01b0316837f2f8788117e7eff1d82e926ec794901d17c78024a50270940304540a733656f0d60405160405180910390a45050565b60008181526001830160205260408120546200026a575081546001818101845560008481526020808220909301849055845484825282860190935260409020919091556200017b565b5060006200017b565b828054620002819062000433565b90600052602060002090601f016020900481019282620002a55760008555620002f0565b82601f10620002c057805160ff1916838001178555620002f0565b82800160010185558215620002f0579182015b82811115620002f0578251825591602001919060010190620002d3565b50620002fe92915062000302565b5090565b5b80821115620002fe576000815560010162000303565b600082601f8301126200032a578081fd5b81516001600160401b038082111562000347576200034762000470565b604051601f8301601f19908116603f0116810190828211818310171562000372576200037262000470565b816040528381526020925086838588010111156200038e578485fd5b8491505b83821015620003b1578582018301518183018401529082019062000392565b83821115620003c257848385830101525b9695505050505050565b60008060408385031215620003df578182fd5b82516001600160401b0380821115620003f6578384fd5b620004048683870162000319565b935060208501519150808211156200041a578283fd5b50620004298582860162000319565b9150509250929050565b600181811c908216806200044857607f821691505b602082108114156200046a57634e487b7160e01b600052602260045260246000fd5b50919050565b634e487b7160e01b600052604160045260246000fd5b6129a280620004966000396000f3fe608060405234801561001057600080fd5b50600436106101e55760003560e01c80636352211e1161010f578063b88d4fde116100a2578063d539139311610071578063d5391393146103f7578063d547741f1461041e578063e63ab1e914610431578063e985e9c51461045857600080fd5b8063b88d4fde146103ab578063c87b56dd146103be578063ca15c873146103d1578063d0def521146103e457600080fd5b806391d14854116100de57806391d148541461037557806395d89b4114610388578063a217fddf14610390578063a22cb4651461039857600080fd5b80636352211e1461033457806370a08231146103475780638456cb591461035a5780639010d07c1461036257600080fd5b80632f2ff15d1161018757806342842e0e1161015657806342842e0e146102f057806342966c68146103035780634f6ccce7146103165780635c975abb1461032957600080fd5b80632f2ff15d146102af5780632f745c59146102c257806336568abe146102d55780633f4ba83a146102e857600080fd5b8063095ea7b3116101c3578063095ea7b31461025257806318160ddd1461026757806323b872dd14610279578063248a9ca31461028c57600080fd5b806301ffc9a7146101ea57806306fdde0314610212578063081812fc14610227575b600080fd5b6101fd6101f836600461260a565b610494565b60405190151581526020015b60405180910390f35b61021a6104a5565b604051610209919061274f565b61023a6102353660046125af565b610537565b6040516001600160a01b039091168152602001610209565b610265610260366004612586565b6105c4565b005b600a545b604051908152602001610209565b610265610287366004612439565b6106da565b61026b61029a3660046125af565b60009081526020819052604090206001015490565b6102656102bd3660046125c7565b61070c565b61026b6102d0366004612586565b61072e565b6102656102e33660046125c7565b6107c4565b6102656107e6565b6102656102fe366004612439565b61087c565b6102656103113660046125af565b610897565b61026b6103243660046125af565b610911565b600d5460ff166101fd565b61023a6103423660046125af565b6109b2565b61026b6103553660046123ed565b610a29565b610265610ab0565b61023a6103703660046125e9565b610b42565b6101fd6103833660046125c7565b610b61565b61021a610b8a565b61026b600081565b6102656103a63660046124ed565b610b99565b6102656103b9366004612474565b610c5e565b61021a6103cc3660046125af565b610c96565b61026b6103df3660046125af565b610ca1565b6102656103f2366004612527565b610cb8565b61026b7f9f2df0fed2c77648de5860a4cc508cd0818c85b8b8a1ab4ceeef8d981c8956a681565b61026561042c3660046125c7565b610d70565b61026b7f65d7a28e3265b37a6474929f336521b332c1681b933f6cb9f3376673440d862a81565b6101fd610466366004612407565b6001600160a01b03918216600090815260076020908152604080832093909416825291909152205460ff1690565b600061049f82610d9d565b92915050565b6060600280546104b4906128aa565b80601f01602080910402602001604051908101604052809291908181526020018280546104e0906128aa565b801561052d5780601f106105025761010080835404028352916020019161052d565b820191906000526020600020905b81548152906001019060200180831161051057829003601f168201915b5050505050905090565b600061054282610dc2565b6105a85760405162461bcd60e51b815260206004820152602c60248201527f4552433732313a20617070726f76656420717565727920666f72206e6f6e657860448201526b34b9ba32b73a103a37b5b2b760a11b60648201526084015b60405180910390fd5b506000908152600660205260409020546001600160a01b031690565b60006105cf826109b2565b9050806001600160a01b0316836001600160a01b0316141561063d5760405162461bcd60e51b815260206004820152602160248201527f4552433732313a20617070726f76616c20746f2063757272656e74206f776e656044820152603960f91b606482015260840161059f565b336001600160a01b038216148061065957506106598133610466565b6106cb5760405162461bcd60e51b815260206004820152603860248201527f4552433732313a20617070726f76652063616c6c6572206973206e6f74206f7760448201527f6e6572206e6f7220617070726f76656420666f7220616c6c0000000000000000606482015260840161059f565b6106d58383610ddf565b505050565b6106e5335b82610e4d565b6107015760405162461bcd60e51b815260040161059f906127b4565b6106d5838383610f37565b61071682826110e2565b60008281526001602052604090206106d59082610d88565b600061073983610a29565b821061079b5760405162461bcd60e51b815260206004820152602b60248201527f455243373231456e756d657261626c653a206f776e657220696e646578206f7560448201526a74206f6620626f756e647360a81b606482015260840161059f565b506001600160a01b03919091166000908152600860209081526040808320938352929052205490565b6107ce8282611108565b60008281526001602052604090206106d59082611182565b6108107f65d7a28e3265b37a6474929f336521b332c1681b933f6cb9f3376673440d862a33610b61565b6108725760405162461bcd60e51b815260206004820152602d60248201527f4b727978697669614e66743a206d75737420686176652070617573657220726f60448201526c6c6520746f20756e706175736560981b606482015260840161059f565b61087a611197565b565b6106d583838360405180602001604052806000815250610c5e565b6108a0336106df565b6109055760405162461bcd60e51b815260206004820152603060248201527f4552433732314275726e61626c653a2063616c6c6572206973206e6f74206f7760448201526f1b995c881b9bdc88185c1c1c9bdd995960821b606482015260840161059f565b61090e8161122a565b50565b600061091c600a5490565b821061097f5760405162461bcd60e51b815260206004820152602c60248201527f455243373231456e756d657261626c653a20676c6f62616c20696e646578206f60448201526b7574206f6620626f756e647360a01b606482015260840161059f565b600a82815481106109a057634e487b7160e01b600052603260045260246000fd5b90600052602060002001549050919050565b6000818152600460205260408120546001600160a01b03168061049f5760405162461bcd60e51b815260206004820152602960248201527f4552433732313a206f776e657220717565727920666f72206e6f6e657869737460448201526832b73a103a37b5b2b760b91b606482015260840161059f565b60006001600160a01b038216610a945760405162461bcd60e51b815260206004820152602a60248201527f4552433732313a2062616c616e636520717565727920666f7220746865207a65604482015269726f206164647265737360b01b606482015260840161059f565b506001600160a01b031660009081526005602052604090205490565b610ada7f65d7a28e3265b37a6474929f336521b332c1681b933f6cb9f3376673440d862a33610b61565b610b3a5760405162461bcd60e51b815260206004820152602b60248201527f4b727978697669614e66743a206d75737420686176652070617573657220726f60448201526a6c6520746f20706175736560a81b606482015260840161059f565b61087a611233565b6000828152600160205260408120610b5a90836112ae565b9392505050565b6000918252602082815260408084206001600160a01b0393909316845291905290205460ff1690565b6060600380546104b4906128aa565b6001600160a01b038216331415610bf25760405162461bcd60e51b815260206004820152601960248201527f4552433732313a20617070726f766520746f2063616c6c657200000000000000604482015260640161059f565b3360008181526007602090815260408083206001600160a01b03871680855290835292819020805460ff191686151590811790915590519081529192917f17307eab39ab6107e8899845ad3d59bd9653f200f220920489ca2b5937696c31910160405180910390a35050565b610c683383610e4d565b610c845760405162461bcd60e51b815260040161059f906127b4565b610c90848484846112ba565b50505050565b606061049f826112ed565b600081815260016020526040812061049f9061144f565b610ce27f9f2df0fed2c77648de5860a4cc508cd0818c85b8b8a1ab4ceeef8d981c8956a633610b61565b610d415760405162461bcd60e51b815260206004820152602a60248201527f4b727978697669614e66743a206d7573742068617665206d696e74657220726f6044820152691b19481d1bc81b5a5b9d60b21b606482015260840161059f565b6000610d4c600e5490565b9050610d588382611459565b610d628183611598565b6106d5600e80546001019055565b6107ce8282611623565b610d848282611649565b5050565b6000610b5a836001600160a01b0384166116cd565b60006001600160e01b0319821663780e9d6360e01b148061049f575061049f8261171c565b6000908152600460205260409020546001600160a01b0316151590565b600081815260066020526040902080546001600160a01b0319166001600160a01b0384169081179091558190610e14826109b2565b6001600160a01b03167f8c5be1e5ebec7d5bd14f71427d1e84f3dd0314c0f7b2291e5b200ac8c7c3b92560405160405180910390a45050565b6000610e5882610dc2565b610eb95760405162461bcd60e51b815260206004820152602c60248201527f4552433732313a206f70657261746f7220717565727920666f72206e6f6e657860448201526b34b9ba32b73a103a37b5b2b760a11b606482015260840161059f565b6000610ec4836109b2565b9050806001600160a01b0316846001600160a01b03161480610eff5750836001600160a01b0316610ef484610537565b6001600160a01b0316145b80610f2f57506001600160a01b0380821660009081526007602090815260408083209388168352929052205460ff165b949350505050565b826001600160a01b0316610f4a826109b2565b6001600160a01b031614610fb25760405162461bcd60e51b815260206004820152602960248201527f4552433732313a207472616e73666572206f6620746f6b656e2074686174206960448201526839903737ba1037bbb760b91b606482015260840161059f565b6001600160a01b0382166110145760405162461bcd60e51b8152602060048201526024808201527f4552433732313a207472616e7366657220746f20746865207a65726f206164646044820152637265737360e01b606482015260840161059f565b61101f83838361175c565b61102a600082610ddf565b6001600160a01b0383166000908152600560205260408120805460019290611053908490612850565b90915550506001600160a01b0382166000908152600560205260408120805460019290611081908490612805565b909155505060008181526004602052604080822080546001600160a01b0319166001600160a01b0386811691821790925591518493918716917fddf252ad1be2c89b69c2b068fc378daa952ba7f163c4a11628f55a4df523b3ef91a4505050565b6000828152602081905260409020600101546110fe8133611767565b6106d58383611649565b6001600160a01b03811633146111785760405162461bcd60e51b815260206004820152602f60248201527f416363657373436f6e74726f6c3a2063616e206f6e6c792072656e6f756e636560448201526e103937b632b9903337b91039b2b63360891b606482015260840161059f565b610d8482826117cb565b6000610b5a836001600160a01b038416611830565b600d5460ff166111e05760405162461bcd60e51b815260206004820152601460248201527314185d5cd8589b194e881b9bdd081c185d5cd95960621b604482015260640161059f565b600d805460ff191690557f5db9ee0a495bf2e6ff9c91a7834c1ba4fdd244a5e8aa4e537bd38aeae4b073aa335b6040516001600160a01b03909116815260200160405180910390a1565b61090e8161194d565b600d5460ff16156112795760405162461bcd60e51b815260206004820152601060248201526f14185d5cd8589b194e881c185d5cd95960821b604482015260640161059f565b600d805460ff191660011790557f62e78cea01bee320cd4e420270b5ea74000d11b0c9f74754ebdbfc544b05a25861120d3390565b6000610b5a838361198d565b6112c5848484610f37565b6112d1848484846119c5565b610c905760405162461bcd60e51b815260040161059f90612762565b60606112f882610dc2565b61135e5760405162461bcd60e51b815260206004820152603160248201527f45524337323155524953746f726167653a2055524920717565727920666f72206044820152703737b732bc34b9ba32b73a103a37b5b2b760791b606482015260840161059f565b6000828152600c602052604081208054611377906128aa565b80601f01602080910402602001604051908101604052809291908181526020018280546113a3906128aa565b80156113f05780601f106113c5576101008083540402835291602001916113f0565b820191906000526020600020905b8154815290600101906020018083116113d357829003601f168201915b505050505090506000611401611ad2565b9050805160001415611414575092915050565b81511561144657808260405160200161142e92919061266e565b60405160208183030381529060405292505050919050565b610f2f84611ae1565b600061049f825490565b6001600160a01b0382166114af5760405162461bcd60e51b815260206004820181905260248201527f4552433732313a206d696e7420746f20746865207a65726f2061646472657373604482015260640161059f565b6114b881610dc2565b156115055760405162461bcd60e51b815260206004820152601c60248201527f4552433732313a20746f6b656e20616c7265616479206d696e74656400000000604482015260640161059f565b6115116000838361175c565b6001600160a01b038216600090815260056020526040812080546001929061153a908490612805565b909155505060008181526004602052604080822080546001600160a01b0319166001600160a01b03861690811790915590518392907fddf252ad1be2c89b69c2b068fc378daa952ba7f163c4a11628f55a4df523b3ef908290a45050565b6115a182610dc2565b6116045760405162461bcd60e51b815260206004820152602e60248201527f45524337323155524953746f726167653a2055524920736574206f66206e6f6e60448201526d32bc34b9ba32b73a103a37b5b2b760911b606482015260840161059f565b6000828152600c6020908152604090912082516106d59284019061228c565b60008281526020819052604090206001015461163f8133611767565b6106d583836117cb565b6116538282610b61565b610d84576000828152602081815260408083206001600160a01b03851684529091529020805460ff191660011790556116893390565b6001600160a01b0316816001600160a01b0316837f2f8788117e7eff1d82e926ec794901d17c78024a50270940304540a733656f0d60405160405180910390a45050565b60008181526001830160205260408120546117145750815460018181018455600084815260208082209093018490558454848252828601909352604090209190915561049f565b50600061049f565b60006001600160e01b031982166380ac58cd60e01b148061174d57506001600160e01b03198216635b5e139f60e01b145b8061049f575061049f82611bab565b6106d5838383611bd0565b6117718282610b61565b610d8457611789816001600160a01b03166014611c42565b611794836020611c42565b6040516020016117a592919061269d565b60408051601f198184030181529082905262461bcd60e51b825261059f9160040161274f565b6117d58282610b61565b15610d84576000828152602081815260408083206001600160a01b0385168085529252808320805460ff1916905551339285917ff6391f5c32d9c69d2a47ea670b442974b53935d1edc7fd64eb21e047a839171b9190a45050565b60008181526001830160205260408120548015611943576000611854600183612850565b855490915060009061186890600190612850565b90508181146118e957600086600001828154811061189657634e487b7160e01b600052603260045260246000fd5b90600052602060002001549050808760000184815481106118c757634e487b7160e01b600052603260045260246000fd5b6000918252602080832090910192909255918252600188019052604090208390555b855486908061190857634e487b7160e01b600052603160045260246000fd5b60019003818190600052602060002001600090559055856001016000868152602001908152602001600020600090556001935050505061049f565b600091505061049f565b61195681611e24565b6000818152600c60205260409020805461196f906128aa565b15905061090e576000818152600c6020526040812061090e91612310565b60008260000182815481106119b257634e487b7160e01b600052603260045260246000fd5b9060005260206000200154905092915050565b60006001600160a01b0384163b15611ac757604051630a85bd0160e11b81526001600160a01b0385169063150b7a0290611a09903390899088908890600401612712565b602060405180830381600087803b158015611a2357600080fd5b505af1925050508015611a53575060408051601f3d908101601f19168201909252611a5091810190612626565b60015b611aad573d808015611a81576040519150601f19603f3d011682016040523d82523d6000602084013e611a86565b606091505b508051611aa55760405162461bcd60e51b815260040161059f90612762565b805181602001fd5b6001600160e01b031916630a85bd0160e11b149050610f2f565b506001949350505050565b6060600f80546104b4906128aa565b6060611aec82610dc2565b611b505760405162461bcd60e51b815260206004820152602f60248201527f4552433732314d657461646174613a2055524920717565727920666f72206e6f60448201526e3732bc34b9ba32b73a103a37b5b2b760891b606482015260840161059f565b6000611b5a611ad2565b90506000815111611b7a5760405180602001604052806000815250610b5a565b80611b8484611ecb565b604051602001611b9592919061266e565b6040516020818303038152906040529392505050565b60006001600160e01b03198216635a05180f60e01b148061049f575061049f82611fe5565b611bdb83838361201a565b600d5460ff16156106d55760405162461bcd60e51b815260206004820152602b60248201527f4552433732315061757361626c653a20746f6b656e207472616e73666572207760448201526a1a1a5b19481c185d5cd95960aa1b606482015260840161059f565b60606000611c51836002612831565b611c5c906002612805565b67ffffffffffffffff811115611c8257634e487b7160e01b600052604160045260246000fd5b6040519080825280601f01601f191660200182016040528015611cac576020820181803683370190505b509050600360fc1b81600081518110611cd557634e487b7160e01b600052603260045260246000fd5b60200101906001600160f81b031916908160001a905350600f60fb1b81600181518110611d1257634e487b7160e01b600052603260045260246000fd5b60200101906001600160f81b031916908160001a9053506000611d36846002612831565b611d41906001612805565b90505b6001811115611dd5576f181899199a1a9b1b9c1cb0b131b232b360811b85600f1660108110611d8357634e487b7160e01b600052603260045260246000fd5b1a60f81b828281518110611da757634e487b7160e01b600052603260045260246000fd5b60200101906001600160f81b031916908160001a90535060049490941c93611dce81612893565b9050611d44565b508315610b5a5760405162461bcd60e51b815260206004820181905260248201527f537472696e67733a20686578206c656e67746820696e73756666696369656e74604482015260640161059f565b6000611e2f826109b2565b9050611e3d8160008461175c565b611e48600083610ddf565b6001600160a01b0381166000908152600560205260408120805460019290611e71908490612850565b909155505060008281526004602052604080822080546001600160a01b0319169055518391906001600160a01b038416907fddf252ad1be2c89b69c2b068fc378daa952ba7f163c4a11628f55a4df523b3ef908390a45050565b606081611eef5750506040805180820190915260018152600360fc1b602082015290565b8160005b8115611f195780611f03816128e5565b9150611f129050600a8361281d565b9150611ef3565b60008167ffffffffffffffff811115611f4257634e487b7160e01b600052604160045260246000fd5b6040519080825280601f01601f191660200182016040528015611f6c576020820181803683370190505b5090505b8415610f2f57611f81600183612850565b9150611f8e600a86612900565b611f99906030612805565b60f81b818381518110611fbc57634e487b7160e01b600052603260045260246000fd5b60200101906001600160f81b031916908160001a905350611fde600a8661281d565b9450611f70565b60006001600160e01b03198216637965db0b60e01b148061049f57506301ffc9a760e01b6001600160e01b031983161461049f565b6001600160a01b0383166120755761207081600a80546000838152600b60205260408120829055600182018355919091527fc65a7bb8d6351c1cf70c95a316cc6a92839c986682d98bc35f958f4883f9d2a80155565b612098565b816001600160a01b0316836001600160a01b0316146120985761209883826120d2565b6001600160a01b0382166120af576106d58161216f565b826001600160a01b0316826001600160a01b0316146106d5576106d58282612248565b600060016120df84610a29565b6120e99190612850565b60008381526009602052604090205490915080821461213c576001600160a01b03841660009081526008602090815260408083208584528252808320548484528184208190558352600990915290208190555b5060009182526009602090815260408084208490556001600160a01b039094168352600881528383209183525290812055565b600a5460009061218190600190612850565b6000838152600b6020526040812054600a80549394509092849081106121b757634e487b7160e01b600052603260045260246000fd5b9060005260206000200154905080600a83815481106121e657634e487b7160e01b600052603260045260246000fd5b6000918252602080832090910192909255828152600b9091526040808220849055858252812055600a80548061222c57634e487b7160e01b600052603160045260246000fd5b6001900381819060005260206000200160009055905550505050565b600061225383610a29565b6001600160a01b039093166000908152600860209081526040808320868452825280832085905593825260099052919091209190915550565b828054612298906128aa565b90600052602060002090601f0160209004810192826122ba5760008555612300565b82601f106122d357805160ff1916838001178555612300565b82800160010185558215612300579182015b828111156123005782518255916020019190600101906122e5565b5061230c929150612346565b5090565b50805461231c906128aa565b6000825580601f1061232c575050565b601f01602090049060005260206000209081019061090e91905b5b8082111561230c5760008155600101612347565b600067ffffffffffffffff8084111561237657612376612940565b604051601f8501601f19908116603f0116810190828211818310171561239e5761239e612940565b816040528093508581528686860111156123b757600080fd5b858560208301376000602087830101525050509392505050565b80356001600160a01b03811681146123e857600080fd5b919050565b6000602082840312156123fe578081fd5b610b5a826123d1565b60008060408385031215612419578081fd5b612422836123d1565b9150612430602084016123d1565b90509250929050565b60008060006060848603121561244d578081fd5b612456846123d1565b9250612464602085016123d1565b9150604084013590509250925092565b60008060008060808587031215612489578081fd5b612492856123d1565b93506124a0602086016123d1565b925060408501359150606085013567ffffffffffffffff8111156124c2578182fd5b8501601f810187136124d2578182fd5b6124e18782356020840161235b565b91505092959194509250565b600080604083850312156124ff578182fd5b612508836123d1565b91506020830135801515811461251c578182fd5b809150509250929050565b60008060408385031215612539578182fd5b612542836123d1565b9150602083013567ffffffffffffffff81111561255d578182fd5b8301601f8101851361256d578182fd5b61257c8582356020840161235b565b9150509250929050565b60008060408385031215612598578182fd5b6125a1836123d1565b946020939093013593505050565b6000602082840312156125c0578081fd5b5035919050565b600080604083850312156125d9578182fd5b82359150612430602084016123d1565b600080604083850312156125fb578182fd5b50508035926020909101359150565b60006020828403121561261b578081fd5b8135610b5a81612956565b600060208284031215612637578081fd5b8151610b5a81612956565b6000815180845261265a816020860160208601612867565b601f01601f19169290920160200192915050565b60008351612680818460208801612867565b835190830190612694818360208801612867565b01949350505050565b7f416363657373436f6e74726f6c3a206163636f756e74200000000000000000008152600083516126d5816017850160208801612867565b7001034b99036b4b9b9b4b733903937b6329607d1b6017918401918201528351612706816028840160208801612867565b01602801949350505050565b6001600160a01b038581168252841660208201526040810183905260806060820181905260009061274590830184612642565b9695505050505050565b602081526000610b5a6020830184612642565b60208082526032908201527f4552433732313a207472616e7366657220746f206e6f6e20455243373231526560408201527131b2b4bb32b91034b6b83632b6b2b73a32b960711b606082015260800190565b60208082526031908201527f4552433732313a207472616e736665722063616c6c6572206973206e6f74206f6040820152701ddb995c881b9bdc88185c1c1c9bdd9959607a1b606082015260800190565b6000821982111561281857612818612914565b500190565b60008261282c5761282c61292a565b500490565b600081600019048311821515161561284b5761284b612914565b500290565b60008282101561286257612862612914565b500390565b60005b8381101561288257818101518382015260200161286a565b83811115610c905750506000910152565b6000816128a2576128a2612914565b506000190190565b600181811c908216806128be57607f821691505b602082108114156128df57634e487b7160e01b600052602260045260246000fd5b50919050565b60006000198214156128f9576128f9612914565b5060010190565b60008261290f5761290f61292a565b500690565b634e487b7160e01b600052601160045260246000fd5b634e487b7160e01b600052601260045260246000fd5b634e487b7160e01b600052604160045260246000fd5b6001600160e01b03198116811461090e57600080fdfea2646970667358221220686766d415a006d67095a5b43893b5c093b401716aaa6e323d6a2b93a9bc78f564736f6c63430008040033",
    "sourcePath": "e:/Github/Kryxivia.SmartContracts/KryxiviaNftContract/contracts/KryxiviaNft.sol",
    "compiler": {
        "name": "solc",
        "version": "0.8.4+commit.c7e474f2"
    },
    "functionHashes": {
        "DEFAULT_ADMIN_ROLE()": "a217fddf",
        "MINTER_ROLE()": "d5391393",
        "PAUSER_ROLE()": "e63ab1e9",
        "approve(address,uint256)": "095ea7b3",
        "balanceOf(address)": "70a08231",
        "burn(uint256)": "42966c68",
        "getApproved(uint256)": "081812fc",
        "getRoleAdmin(bytes32)": "248a9ca3",
        "getRoleMember(bytes32,uint256)": "9010d07c",
        "getRoleMemberCount(bytes32)": "ca15c873",
        "grantRole(bytes32,address)": "2f2ff15d",
        "hasRole(bytes32,address)": "91d14854",
        "isApprovedForAll(address,address)": "e985e9c5",
        "mint(address,string)": "d0def521",
        "name()": "06fdde03",
        "ownerOf(uint256)": "6352211e",
        "pause()": "8456cb59",
        "paused()": "5c975abb",
        "renounceRole(bytes32,address)": "36568abe",
        "revokeRole(bytes32,address)": "d547741f",
        "safeTransferFrom(address,address,uint256)": "42842e0e",
        "safeTransferFrom(address,address,uint256,bytes)": "b88d4fde",
        "setApprovalForAll(address,bool)": "a22cb465",
        "supportsInterface(bytes4)": "01ffc9a7",
        "symbol()": "95d89b41",
        "tokenByIndex(uint256)": "4f6ccce7",
        "tokenOfOwnerByIndex(address,uint256)": "2f745c59",
        "tokenURI(uint256)": "c87b56dd",
        "totalSupply()": "18160ddd",
        "transferFrom(address,address,uint256)": "23b872dd",
        "unpause()": "3f4ba83a"
    },
    "gasEstimates": {
        "creation": {
            "codeDepositCost": "2131600",
            "executionCost": "infinite",
            "totalCost": "infinite"
        },
        "external": {
            "DEFAULT_ADMIN_ROLE()": "284",
            "MINTER_ROLE()": "239",
            "PAUSER_ROLE()": "283",
            "approve(address,uint256)": "infinite",
            "balanceOf(address)": "1357",
            "burn(uint256)": "infinite",
            "getApproved(uint256)": "2222",
            "getRoleAdmin(bytes32)": "1259",
            "getRoleMember(bytes32,uint256)": "infinite",
            "getRoleMemberCount(bytes32)": "infinite",
            "grantRole(bytes32,address)": "infinite",
            "hasRole(bytes32,address)": "1396",
            "isApprovedForAll(address,address)": "infinite",
            "mint(address,string)": "infinite",
            "name()": "infinite",
            "ownerOf(uint256)": "1302",
            "pause()": "24014",
            "paused()": "1104",
            "renounceRole(bytes32,address)": "infinite",
            "revokeRole(bytes32,address)": "infinite",
            "safeTransferFrom(address,address,uint256)": "infinite",
            "safeTransferFrom(address,address,uint256,bytes)": "infinite",
            "setApprovalForAll(address,bool)": "23339",
            "supportsInterface(bytes4)": "infinite",
            "symbol()": "infinite",
            "tokenByIndex(uint256)": "2904",
            "tokenOfOwnerByIndex(address,uint256)": "2398",
            "tokenURI(uint256)": "infinite",
            "totalSupply()": "1049",
            "transferFrom(address,address,uint256)": "infinite",
            "unpause()": "24013"
        },
        "internal": {
            "_baseURI()": "infinite",
            "_beforeTokenTransfer(address,address,uint256)": "infinite",
            "_burn(uint256)": "infinite"
        }
    }
}